{
  "contractName": "TokenFarm",
  "abi": [
    {
      "inputs": [
        {
          "internalType": "contract DappToken",
          "name": "_dappToken",
          "type": "address"
        },
        {
          "internalType": "contract DaiToken",
          "name": "_daiToken",
          "type": "address"
        }
      ],
      "payable": false,
      "stateMutability": "nonpayable",
      "type": "constructor"
    },
    {
      "constant": true,
      "inputs": [],
      "name": "daiToken",
      "outputs": [
        {
          "internalType": "contract DaiToken",
          "name": "",
          "type": "address"
        }
      ],
      "payable": false,
      "stateMutability": "view",
      "type": "function"
    },
    {
      "constant": true,
      "inputs": [],
      "name": "dappToken",
      "outputs": [
        {
          "internalType": "contract DappToken",
          "name": "",
          "type": "address"
        }
      ],
      "payable": false,
      "stateMutability": "view",
      "type": "function"
    },
    {
      "constant": true,
      "inputs": [
        {
          "internalType": "address",
          "name": "",
          "type": "address"
        }
      ],
      "name": "hasStaked",
      "outputs": [
        {
          "internalType": "bool",
          "name": "",
          "type": "bool"
        }
      ],
      "payable": false,
      "stateMutability": "view",
      "type": "function"
    },
    {
      "constant": true,
      "inputs": [
        {
          "internalType": "address",
          "name": "",
          "type": "address"
        }
      ],
      "name": "isStaking",
      "outputs": [
        {
          "internalType": "bool",
          "name": "",
          "type": "bool"
        }
      ],
      "payable": false,
      "stateMutability": "view",
      "type": "function"
    },
    {
      "constant": true,
      "inputs": [],
      "name": "name",
      "outputs": [
        {
          "internalType": "string",
          "name": "",
          "type": "string"
        }
      ],
      "payable": false,
      "stateMutability": "view",
      "type": "function"
    },
    {
      "constant": true,
      "inputs": [
        {
          "internalType": "uint256",
          "name": "",
          "type": "uint256"
        }
      ],
      "name": "stakers",
      "outputs": [
        {
          "internalType": "address",
          "name": "",
          "type": "address"
        }
      ],
      "payable": false,
      "stateMutability": "view",
      "type": "function"
    },
    {
      "constant": true,
      "inputs": [
        {
          "internalType": "address",
          "name": "",
          "type": "address"
        }
      ],
      "name": "stakingBalance",
      "outputs": [
        {
          "internalType": "uint256",
          "name": "",
          "type": "uint256"
        }
      ],
      "payable": false,
      "stateMutability": "view",
      "type": "function"
    },
    {
      "constant": false,
      "inputs": [
        {
          "internalType": "uint256",
          "name": "_amount",
          "type": "uint256"
        }
      ],
      "name": "stakeTokens",
      "outputs": [],
      "payable": false,
      "stateMutability": "nonpayable",
      "type": "function"
    },
    {
      "constant": false,
      "inputs": [],
      "name": "issueTokens",
      "outputs": [],
      "payable": false,
      "stateMutability": "nonpayable",
      "type": "function"
    },
    {
      "constant": false,
      "inputs": [],
      "name": "unstakeTokens",
      "outputs": [],
      "payable": false,
      "stateMutability": "nonpayable",
      "type": "function"
    }
  ],
  "bytecode": "0x60806040526040518060400160405280600f81526020017f4461707020546f6b656e204661726d00000000000000000000000000000000008152506000908051906020019061004f929190610164565b5034801561005c57600080fd5b50604051610f5a380380610f5a8339818101604052604081101561007f57600080fd5b81019080805190602001909291908051906020019092919050505081600160006101000a81548173ffffffffffffffffffffffffffffffffffffffff021916908373ffffffffffffffffffffffffffffffffffffffff16021790555080600260006101000a81548173ffffffffffffffffffffffffffffffffffffffff021916908373ffffffffffffffffffffffffffffffffffffffff16021790555033600360006101000a81548173ffffffffffffffffffffffffffffffffffffffff021916908373ffffffffffffffffffffffffffffffffffffffff1602179055505050610209565b828054600181600116156101000203166002900490600052602060002090601f016020900481019282601f106101a557805160ff19168380011785556101d3565b828001600101855582156101d3579182015b828111156101d25782518255916020019190600101906101b7565b5b5090506101e091906101e4565b5090565b61020691905b808211156102025760008160009055506001016101ea565b5090565b90565b610d42806102186000396000f3fe608060405234801561001057600080fd5b506004361061009e5760003560e01c80637547c7a3116100665780637547c7a31461022e578063a5ce413b1461025c578063be22f54614610266578063c93c8f34146102b0578063fd5e6dd11461030c5761009e565b806306fdde03146100a357806345bc78ab146101265780635eb186f81461017e57806360ab5852146101c85780636f49712b146101d2575b600080fd5b6100ab61037a565b6040518080602001828103825283818151815260200191508051906020019080838360005b838110156100eb5780820151818401526020810190506100d0565b50505050905090810190601f1680156101185780820380516001836020036101000a031916815260200191505b509250505060405180910390f35b6101686004803603602081101561013c57600080fd5b81019080803573ffffffffffffffffffffffffffffffffffffffff169060200190929190505050610418565b6040518082815260200191505060405180910390f35b610186610430565b604051808273ffffffffffffffffffffffffffffffffffffffff1673ffffffffffffffffffffffffffffffffffffffff16815260200191505060405180910390f35b6101d0610456565b005b610214600480360360208110156101e857600080fd5b81019080803573ffffffffffffffffffffffffffffffffffffffff1690602001909291905050506106ad565b604051808215151515815260200191505060405180910390f35b61025a6004803603602081101561024457600080fd5b81019080803590602001909291905050506106cd565b005b610264610a4c565b005b61026e610c8b565b604051808273ffffffffffffffffffffffffffffffffffffffff1673ffffffffffffffffffffffffffffffffffffffff16815260200191505060405180910390f35b6102f2600480360360208110156102c657600080fd5b81019080803573ffffffffffffffffffffffffffffffffffffffff169060200190929190505050610cb1565b604051808215151515815260200191505060405180910390f35b6103386004803603602081101561032257600080fd5b8101908080359060200190929190505050610cd1565b604051808273ffffffffffffffffffffffffffffffffffffffff1673ffffffffffffffffffffffffffffffffffffffff16815260200191505060405180910390f35b60008054600181600116156101000203166002900480601f0160208091040260200160405190810160405280929190818152602001828054600181600116156101000203166002900480156104105780601f106103e557610100808354040283529160200191610410565b820191906000526020600020905b8154815290600101906020018083116103f357829003601f168201915b505050505081565b60056020528060005260406000206000915090505481565b600160009054906101000a900473ffffffffffffffffffffffffffffffffffffffff1681565b600360009054906101000a900473ffffffffffffffffffffffffffffffffffffffff1673ffffffffffffffffffffffffffffffffffffffff163373ffffffffffffffffffffffffffffffffffffffff1614610519576040517f08c379a00000000000000000000000000000000000000000000000000000000081526004018080602001828103825260188152602001807f63616c6c6572206d75737420626520746865206f776e6572000000000000000081525060200191505060405180910390fd5b60008090505b6004805490508110156106aa5760006004828154811061053b57fe5b9060005260206000200160009054906101000a900473ffffffffffffffffffffffffffffffffffffffff1690506000600560008373ffffffffffffffffffffffffffffffffffffffff1673ffffffffffffffffffffffffffffffffffffffff168152602001908152602001600020549050600081111561069b57600160009054906101000a900473ffffffffffffffffffffffffffffffffffffffff1673ffffffffffffffffffffffffffffffffffffffff1663a9059cbb83836040518363ffffffff1660e01b8152600401808373ffffffffffffffffffffffffffffffffffffffff1673ffffffffffffffffffffffffffffffffffffffff16815260200182815260200192505050602060405180830381600087803b15801561065e57600080fd5b505af1158015610672573d6000803e3d6000fd5b505050506040513d602081101561068857600080fd5b8101908080519060200190929190505050505b5050808060010191505061051f565b50565b60076020528060005260406000206000915054906101000a900460ff1681565b60008111610743576040517f08c379a00000000000000000000000000000000000000000000000000000000081526004018080602001828103825260128152602001807f616d6f756e742063616e6e6f742062652030000000000000000000000000000081525060200191505060405180910390fd5b600260009054906101000a900473ffffffffffffffffffffffffffffffffffffffff1673ffffffffffffffffffffffffffffffffffffffff166323b872dd3330846040518463ffffffff1660e01b8152600401808473ffffffffffffffffffffffffffffffffffffffff1673ffffffffffffffffffffffffffffffffffffffff1681526020018373ffffffffffffffffffffffffffffffffffffffff1673ffffffffffffffffffffffffffffffffffffffff1681526020018281526020019350505050602060405180830381600087803b15801561082057600080fd5b505af1158015610834573d6000803e3d6000fd5b505050506040513d602081101561084a57600080fd5b81019080805190602001909291905050505080600560003373ffffffffffffffffffffffffffffffffffffffff1673ffffffffffffffffffffffffffffffffffffffff1681526020019081526020016000205401600560003373ffffffffffffffffffffffffffffffffffffffff1673ffffffffffffffffffffffffffffffffffffffff16815260200190815260200160002081905550600660003373ffffffffffffffffffffffffffffffffffffffff1673ffffffffffffffffffffffffffffffffffffffff16815260200190815260200160002060009054906101000a900460ff166109995760043390806001815401808255809150509060018203906000526020600020016000909192909190916101000a81548173ffffffffffffffffffffffffffffffffffffffff021916908373ffffffffffffffffffffffffffffffffffffffff160217905550505b6001600660003373ffffffffffffffffffffffffffffffffffffffff1673ffffffffffffffffffffffffffffffffffffffff16815260200190815260200160002060006101000a81548160ff0219169083151502179055506001600760003373ffffffffffffffffffffffffffffffffffffffff1673ffffffffffffffffffffffffffffffffffffffff16815260200190815260200160002060006101000a81548160ff02191690831515021790555050565b6000600560003373ffffffffffffffffffffffffffffffffffffffff1673ffffffffffffffffffffffffffffffffffffffff16815260200190815260200160002054905060008111610b06576040517f08c379a000000000000000000000000000000000000000000000000000000000815260040180806020018281038252601b8152602001807f7374616b696e672062616c616e63652063616e6e6f742062652030000000000081525060200191505060405180910390fd5b600260009054906101000a900473ffffffffffffffffffffffffffffffffffffffff1673ffffffffffffffffffffffffffffffffffffffff1663a9059cbb33836040518363ffffffff1660e01b8152600401808373ffffffffffffffffffffffffffffffffffffffff1673ffffffffffffffffffffffffffffffffffffffff16815260200182815260200192505050602060405180830381600087803b158015610baf57600080fd5b505af1158015610bc3573d6000803e3d6000fd5b505050506040513d6020811015610bd957600080fd5b8101908080519060200190929190505050506000600560003373ffffffffffffffffffffffffffffffffffffffff1673ffffffffffffffffffffffffffffffffffffffff168152602001908152602001600020819055506000600760003373ffffffffffffffffffffffffffffffffffffffff1673ffffffffffffffffffffffffffffffffffffffff16815260200190815260200160002060006101000a81548160ff02191690831515021790555050565b600260009054906101000a900473ffffffffffffffffffffffffffffffffffffffff1681565b60066020528060005260406000206000915054906101000a900460ff1681565b60048181548110610cde57fe5b906000526020600020016000915054906101000a900473ffffffffffffffffffffffffffffffffffffffff168156fea265627a7a7231582048132454587173977504b67bab27629e280f51ba5796a125acce316005b5e77764736f6c63430005100032",
  "source": "pragma solidity ^0.5.0;\n\nimport \"./DappToken.sol\"; //makes file aware of tokens\nimport \"./DaiToken.sol\"; //makes file aware of tokens\n\ncontract TokenFarm { //allow this smart contract to take in dai tokens and issue dapp tokens\n\t// All code goes here...\n\tstring public name = \"Dapp Token Farm\";\n\tDappToken public dappToken; //The smart contract becomes the type, DappToken is the type\n\tDaiToken public daiToken; //Very similar to java here\n\taddress owner; //person who deploys the smart contract\n\n\taddress[] public stakers; // keeps track of all stakers\n\tmapping(address => uint) public stakingBalance;\n\tmapping(address => bool) public hasStaked;\n\tmapping(address => bool) public isStaking;\n\n\tconstructor(DappToken _dappToken, DaiToken _daiToken) public { //runs only once when the function is deployed\n\t\tdappToken = _dappToken;\n\t\tdaiToken = _daiToken;\n\t\towner = msg.sender;\n\t}\t\n\n\t// 1. Stakes Tokens (Deposit)\n\t//Deposit Dai Tokens into the Token Farm\n\tfunction stakeTokens(uint _amount) public {\n\n\t\t// Require amount greater than 0\n\t\trequire(_amount > 0, \"amount cannot be 0\");\n\n\t\t//Transfer Mock Dai tokens to this contract for staking\n\t\tdaiToken.transferFrom(msg.sender, address(this), _amount); \n\n\t\t//Update staking balance \n\t\t//current staking balance += the amount this invested\n\t\tstakingBalance[msg.sender] = stakingBalance[msg.sender] + _amount; //updated the value for the stakingBalance[msg.sender] key\n\n\t\t//Add user to stakers array *only* if they haven't staked already\n\t\tif (!hasStaked[msg.sender]) { //checks if they have staked yet\n\t\t\tstakers.push(msg.sender); //push to the stakers array\n\t\t}\n\n\t\t//Update Staking Status\n\t\thasStaked[msg.sender] = true; //sets the msg.sender key in hasStaked to be True\n\t\tisStaking[msg.sender] = true; //Sets the isstaking key to be true\n\t}\n\n\t// 2. Issuing Tokens\n\tfunction issueTokens() public{ \n\n\t\trequire(msg.sender == owner, \"caller must be the owner\"); // only the person who deployed the contract can run this\n\n\t\t//issues tokens to all stakers\n\t\tfor (uint i = 0; i < stakers.length; i++){//for every staker\n\t\t\taddress recipient = stakers[i]; // get address\n\t\t\tuint balance = stakingBalance[recipient];// get their balance\n\n\t\t\tif (balance > 0){\n\t\t\t\tdappToken.transfer(recipient, balance); // For every Dai they get a DApp token // this can be changed easily\n\t\t\t}\n\t\t}\n\t}\n\n\t// 3. Unstaking Tokens (Withdraw)\n\t// Withdraw Dai Tokens from token farm into their wallet\n\tfunction unstakeTokens() public {\n\t\tuint balance = stakingBalance[msg.sender];\n\n\t\t//require amount greater than 0\n\t\trequire(balance > 0, \"staking balance cannot be 0\");\n\n\t\t//Transfer Mock Dai tokens back to investor\n\t\tdaiToken.transfer(msg.sender, balance);\n\n\t\t// Reset Staking Balance\n\t\tstakingBalance[msg.sender] = 0;\n\n\t\t//Update staking status\n\t\tisStaking[msg.sender] = false;\n\t}\n\n\t\n}\n",
  "sourcePath": "/Users/erikmacinnis/Desktop/BlockChainWork/defi_tutorial/src/contracts/TokenFarm.sol",
  "compiler": {
    "name": "solc",
    "version": "0.5.16+commit.9c3226ce.Emscripten.clang"
  },
  "schemaVersion": "3.4.4",
  "updatedAt": "2022-02-21T17:12:03.299Z",
  "networkType": "ethereum",
  "devdoc": {
    "methods": {}
  },
  "userdoc": {
    "methods": {}
  }
}